:100000000C942A000C9447000C9447000C94470071
:100010000C9447000C9447000C9447000C94470044
:100020000C9447000C9405040C9447000C94470072
:100030000C9447000C94A5070C9401080C944700FD
:100040000C9453000C9447000C9447000C94470008
:100050000C94470011241FBECFE5D8E0DEBFCDBF12
:1000600011E0A0E6B0E0ECE4F5E202C005900D92EC
:10007000A638B107D9F712E0A6E8B1E001C01D9299
:10008000A630B107E1F70E94E4050C94A4120C9489
:10009000000017B88FEA86B910BE369A81E087B99A
:1000A00080E18ABB08951F920F920FB60F92112420
:1000B0002F933F934F935F938F939F9387B190E0DC
:1000C000909387018093860187B191E0892787B952
:1000D00024B135B187B190E080959095AC01417025
:1000E000507080FF04C041305105D1F51DC0CA9B3E
:1000F0000BC08091AE019091AF01821B930B909346
:10010000AF018093AE010AC08091AE019091AF0122
:10011000280F391F3093AF012093AE018091B201B7
:100120008F5F8093B2011CC0CB9B0BC08091B0014C
:100130009091B101821B930B9093B1018093B00118
:100140000AC08091B0019091B101280F391F3093FE
:10015000B1012093B0018091B3018F5F8093B3010F
:100160009F918F915F914F913F912F910F900FBE73
:100170000F901F9018952F923F924F925F926F921F
:100180007F928F929F92AF92BF92CF92DF92EF9227
:10019000FF920F931F93CF93DF93EC01F89460903D
:1001A000AE017090AF016091B0017091B1012090EB
:1001B000B201E090B3011092B2011092AF0110921F
:1001C000AE011092B3011092B1011092B001789477
:1001D000882777FD8095982F0E94AC0C5B016C01FD
:1001E000FF2400E010E0C801B7010E945E0D9B01F2
:1001F000AC01C601B5010E94100B6C837D838E8318
:100200009F83882477FC8094982CC401B3010E94BA
:10021000AC0C7B018C01332444245524C201B10170
:100220000E945E0D9B01AC01C801B7010E94100B3A
:10023000688379838A839B83DF91CF911F910F918C
:10024000FF90EF90DF90CF90BF90AF909F908F90F6
:100250007F906F905F904F903F902F9008952F92D6
:100260003F924F925F926F927F928F929F92AF9246
:10027000BF92CF92DF92EF92FF920F931F93DF9383
:10028000CF93CDB7DEB760970FB6F894DEBF0FBE41
:10029000CDBF6F83788789879A872B873C874D8767
:1002A0005E8727013801988A8F86C801B70120E050
:1002B00030E040E85FE30E94EC0B18165CF40F2E70
:1002C000F0E04F2EF0E05F2EF0E86F2EFFE37F2E80
:1002D000F02D14C0C801B70120E030E040E85FEB2A
:1002E0000E944C0C882354F40F2EF0E04F2EF0E0C7
:1002F0005F2EF0E86F2EFFEB7F2EF02DC601B501CB
:1003000020E030E040E85FE30E94EC0B18165CF45C
:100310000F2EF0E0AF2EF0E0BF2EF0E8CF2EFFE37F
:10032000DF2EF02D14C0C601B50120E030E040E81A
:100330005FEB0E944C0C882354F40F2EF0E0AF2E9C
:10034000F0E0BF2EF0E8CF2EFFEBDF2EF02DE09097
:100350009C01F0909D0100919E0110919F01E092FF
:100360009801F092990100939A0110939B01C601A4
:10037000B501A30192010E94B8092AE132E646E8DC
:1003800050E40E94160A6B837C838D839E83609366
:100390009C0170939D0180939E0190939F01C601E3
:1003A000B501A30192010E94E90920E030E040E09C
:1003B0005FE30E94160A3B014C0160939401709325
:1003C000950180939601909397016B817C818D813B
:1003D0009E81A80197010E94E9092AE037ED43E2D6
:1003E0005BE30E94160A2091A4013091A50140917F
:1003F000A6015091A7010E94E9097B018C012BED18
:100400003FE049EC50E40E94EC0B18164CF4C80194
:10041000B7012BED3FE049EC50E40E94B80912C04F
:10042000C801B70120E030E040E050E00E944C0CF1
:10043000882354F4C801B7012BED3FE049EC50E4A8
:100440000E94E9097B018C01E092A401F092A501D0
:100450000093A6011093A701C801B7012BED3FE05F
:1004600049E450E40E94E9099B01AC016B857C855D
:100470008D859E850E941C0C88235CF06B857C8595
:100480008D859E852BED3FE049EC50E40E94B80934
:100490001CC0C801B7012BED3FE049E450E40E94C5
:1004A000B8099B01AC016B857C858D859E850E947A
:1004B0007C0C181674F06B857C858D859E852BEDE4
:1004C0003FE049EC50E40E94E9096B877C878D8707
:1004D0009E876B857C858D859E85A80197010E94EE
:1004E000B8095B016C016093A0017093A101809336
:1004F000A2019093A301C401B30128EE31EB49E7B7
:1005000050EC0E94160A7B018C016F8178858985E9
:100510009A8524EF38ED4CE950E40E94160A9B01BD
:10052000AC01C801B7010E94E9093B014C01C601B9
:10053000B50121E237EA44E95FE30E94160A7B0134
:100540008C016B817C818D819E8128E137EA44E1B9
:100550005FEB0E94160A9B01AC01C801B7010E9423
:10056000E9095B016C0120E030E040E050E00E94CE
:100570001C0C87FF03C00FEF1FEF02C001E010E06B
:1005800010938B0100938A01C401B30120E030E095
:1005900040E050E00E941C0C87FF05C02FEF3FEFAA
:1005A0003A83298304C081E090E09A838983A981FA
:1005B000BA81B0938901A0938801B801882777FD9B
:1005C0008095982F0E94AC0C1B012C01A60195016F
:1005D0000E94160A7B018C0120E030E040E85FE3D6
:1005E0000E94EC0B18161CF46201510114C0C801E2
:1005F000B7012DEC3CEC4CE45DE30E947C0C18163A
:1006000054F00F2EF0E0AF2EF0E0BF2EF0E0CF2E32
:10061000F0E0DF2EF02DA0928C01B0928D01C092FF
:100620008E01D0928F01E981FA81BF01882777FD81
:100630008095982F0E94AC0C7B018C01A401930142
:100640000E94160A20E030E040E85FE30E94EC0BD5
:10065000181614F437014801C201B101A601950131
:100660000E94160A9B01AC0160E070E080E89FE305
:100670000E94B8091B012C01C801B701A401930114
:100680000E94160AA20191010E94EC0B181644F474
:10069000C801B701A20191010E94160A3B014C0159
:1006A00060929001709291018092920190929301D8
:1006B000C401B301A60195010E94E909ADA1BEA143
:1006C0006D937D938D939C931397C401B301A60101
:1006D00095010E94B809EF85F88960837183828350
:1006E0009383ADA1BEA1ED90FD900D911C91C80129
:1006F000B70124EA30E74DE75FE30E94EC0B1816E0
:100700005CF40F2EF4EAEF2EF0E7FF2EFDE70F2F3B
:10071000FFE31F2FF02D14C0C801B70124EA30E712
:100720004DE75FEB0E944C0C882354F40F2EF4EA43
:10073000EF2EF0E7FF2EFDE70F2FFFEB1F2FF02D21
:10074000EDA1FEA1E082F18202831383AF85B88917
:10075000ED90FD900D911C91C801B70124EA30E79E
:100760004DE75FE30E94EC0B18165CF40F2EF4EAE1
:10077000EF2EF0E7FF2EFDE70F2FFFE31F2FF02DE9
:1007800014C0C801B70124EA30E74DE75FEB0E94CF
:100790004C0C882354F40F2EF4EAEF2EF0E7FF2ED2
:1007A000FDE70F2FFFEB1F2FF02DEF85F889E0827B
:1007B000F1820283138360960FB6F894DEBF0FBEFA
:1007C000CDBFCF91DF911F910F91FF90EF90DF9000
:1007D000CF90BF90AF909F908F907F906F905F90E1
:1007E0004F903F902F9008958CEF81BB82EA8FBD90
:1007F0008AE18EBD1BBC1ABC19BC18BC8FE097E205
:1008000097BD86BD84E089BF08951F920F920FB6F1
:100810000F9211242F933F938F939F9381E08093A6
:10082000AD012091AB012130C1F48091A8019091DC
:10083000A90101969093A9018093A8018091A80134
:100840009091A901845F914040F01092AB01109209
:10085000A9011092A8012093AA019F918F913F9125
:100860002F910F900FBE0F901F901895813051F06F
:10087000813028F0823041F0833061F408C0929AD0
:10088000939808C0939A01C09398929803C082B33A
:100890008C6082BB613051F0613028F0623041F0F1
:1008A000633061F408C0969A97980895979A01C0AA
:1008B00097989698089582B3806C82BB0895EF92C2
:1008C000FF920F931F931BBC1ABC19BC18BC82B3B8
:1008D000846482BBDC9A1092A9011092A80181E085
:1008E0008093AB011092AA018091AA018130E1F7B7
:1008F00088BB1092AA011092B2011092B30110921B
:10090000AF011092AE011092B1011092B00180912E
:10091000B201893120F48091B3018931C0F38CECAC
:1009200091E00E94BB0000D000D000D0EDB7FEB730
:1009300031968EEE91E0ADB7BEB712969C938E9332
:10094000119780E690E0938382838091CC0190910F
:10095000CD01958384830E94031091E09093AC01B4
:10096000559A82B3846482BB82B382BBDC98909335
:10097000AB011092AA018DB79EB706960FB6F894F8
:100980009EBF0FBE8DBF8091AA018130E1F710920A
:10099000B2011092B3011092AF011092AE01109209
:1009A000B1011092B0011092AA018091B201893177
:1009B00020F48091B3018931C0F384E690E00E9475
:1009C000BB0088B392E0892788BB82B3886882BB6A
:1009D00082B382BBDC9A81E08093AB011092AA01C2
:1009E0008091AA018130E1F71092B2011092B30117
:1009F0001092AF011092AE011092B1011092B001AD
:100A00001092AA018091B201893120F48091B30142
:100A10008931C0F380ED91E00E94BB0088B394E07F
:100A2000892788BB82B3886882BB82B382BBDC988B
:100A300081E08093AB011092AA018091AA018130DC
:100A4000E1F71092B2011092B3011092AF0110922F
:100A5000AE011092B1011092B0011092AA018091E2
:100A6000B201893120F48091B3018931C0F388E665
:100A700090E00E94BB0088B398E0892788BB609112
:100A8000CC017091CD0180E090E00E945E0D7B0171
:100A90008C01609164007091650080E090E00E949C
:100AA0005E0D9B01AC01C801B7010E94B8099B0112
:100AB000AC0160E070EC8FE794E40E94100B60934F
:100AC0006C0070936D0080936E0090936F00609146
:100AD000CE017091CF0180E090E00E945E0D7B011D
:100AE0008C01609166007091670080E090E00E9448
:100AF0005E0D9B01AC01C801B7010E94B8099B01C2
:100B0000AC0160E070EC8FE794E40E94100B6093FE
:100B100070007093710080937200909373006091E5
:100B2000D0017091D10180E090E00E945E0D7B01C8
:100B30008C01609168007091690080E090E00E94F3
:100B40005E0D9B01AC01C801B7010E94B8099B0171
:100B5000AC0160E070EC8FE794E40E94100B6093AE
:100B60007400709375008093760090937700609185
:100B7000D2017091D30180E090E00E945E0D7B0174
:100B80008C0160916A0070916B0080E090E00E949F
:100B90005E0D9B01AC01C801B7010E94B8099B0121
:100BA000AC0160E070EC8FE794E40E94100B60935E
:100BB00078007093790080937A0090937B001F9166
:100BC0000F91FF90EF9008955F926F927F928F92B6
:100BD0009F92AF92BF92CF92DF92EF92FF920F93CC
:100BE0001F93CF93DF9378948FEF87BB18BA0E943F
:100BF0009B070E9449000E94F4030E945F0488B38F
:100C000090E1892788BB1092AD0184E682BB80ED1C
:100C100097E09BBD8ABD99BD88BD77247394C8ECCD
:100C2000D1E0A2E05A2EF3E06F2E8091630088237A
:100C3000A1F5709263006091E4017091E5018091EB
:100C4000E6019091E70120E030E048EC52E40E9498
:100C5000B8092AE037ED43E25CE30E94160A60938C
:100C6000E4017093E5018093E6019093E7016091C0
:100C7000E8017091E9018091EA019091EB0125E38F
:100C80003AEF4EE05DE30E94160A6093E80170932C
:100C9000E9018093EA019093EB018091AD018823F3
:100CA00021F28091EC018F5F8093EC01853628F072
:100CB0001092EC0188B3805888BB1092AD018CEB88
:100CC00091E00E94BB00E090BC01F090BD0100915A
:100CD000BE011091BF01C801B70120E030E040E043
:100CE00050E00E94EC0B18165CF4C801B70120918B
:100CF0006C0030916D0040916E0050916F000AC001
:100D0000C801B701209174003091750040917600C0
:100D1000509177000E94160A20E030E040E85AE344
:100D20000E94160A6093B4017093B5018093B601D6
:100D30009093B701E090C001F090C1010091C20111
:100D40001091C301C801B70120E030E040E050E05D
:100D50000E94EC0B18165CF4C801B70120917000DA
:100D60003091710040917200509173000AC0C80127
:100D7000B701209178003091790040917A0050912C
:100D80007B000E94160A20E030E040E85AE30E940F
:100D9000160A6093B8017093B9018093BA019093D9
:100DA000BB016091E4017091E5018091E6019091B1
:100DB000E7012091E8013091E9014091EA01509169
:100DC000EB0100D0E090B401F090B5010091B601C4
:100DD0001091B701A090B801B090B901C090BA01CC
:100DE000D090BB01EDB7FEB7D283C183ECEF8E2E5E
:100DF000EFEF9E2E8C0E9D1E0E942F01A090C4012D
:100E0000B090C501C090C601D090C7010F900F905F
:100E1000C601B50120E030E040E050E00E94BC0B8C
:100E2000882329F41BBC1ABC6092040233C0C6019B
:100E3000B50120E030E040E050E00E944C0C8823F7
:100E400064F47092040266B577B580E090E00E9489
:100E50005E0DA6019501505814C0C601B50120E0F1
:100E600030E040E050E00E94EC0B18168CF4109239
:100E7000040266B577B580E090E00E945E0DA601A1
:100E800095010E94160A0E9440087BBD6ABD02C0FF
:100E900050920402E090C801F090C9010091CA018B
:100EA0001091CB01C801B70120E030E040E050E0F4
:100EB0000E94BC0B882329F41BBC1ABC6092ED0174
:100EC00033C0C801B70120E030E040E050E00E94AC
:100ED0004C0C882364F47092ED0166B577B580E020
:100EE00090E00E945E0DA6019501505814C0C80103
:100EF000B70120E030E040E050E00E94EC0B181613
:100F00008CF41092ED0166B577B580E090E00E9418
:100F10005E0DA60195010E94160A0E9440087BBD45
:100F20006ABD02C05092ED01809104026091ED0112
:100F30000E9436047ACE10BC87E689B980E28BB96C
:100F400088E98AB986E880BD08951F920F920FB68E
:100F50000F9211242F933F934F935F936F937F933F
:100F60008F939F93AF93BF93EF93FF938CB1809335
:100F700005028091AC01882309F4559A80916300A1
:100F8000823051F08330D9F0813051F580910502E3
:100F9000813F11F482E010C06091050270E080E0B2
:100FA00090E00E945E0D6093E4017093E5018093F0
:100FB000E6019093E70183E08093630011C06091A4
:100FC000050270E080E090E00E945E0D6093E80111
:100FD0007093E9018093EA019093EB011092630012
:100FE000FF91EF91BF91AF919F918F917F916F9101
:100FF0005F914F913F912F910F900FBE0F901F90D7
:1010000018951F920F920FB60F9211248F93EF93A2
:10101000FF938091AC01813039F580917C0084315F
:1010200029F48EEF8CB910927C0022C0E0917C00F4
:10103000F0E0E251FE4F8081882369F0E0917C006E
:10104000F0E0E251FE4F80818CB980917C008F5F8F
:1010500080937C000DC08FEF8CB9559884E180930C
:101060007C001092AC0104C0809105028CB95598A7
:10107000FF91EF918F910F900FBE0F901F901895D9
:10108000EF92FF920F931F937B018C0120E030E0E1
:1010900040E05FE40E941C0C88238CF0C801B7017B
:1010A00020E030E040E05FE40E94B8090E940A0DB1
:1010B0009B01AC01205030404040504806C0C80160
:1010C000B7010E940A0D9B01AC01B901CA011F9131
:1010D0000F91FF90EF900895A0E0B0E0E2E7F8E014
:1010E0000C94CC0FDC012B01FA019C91923008F496
:1010F00039C1EB018881823008F433C1943069F43E
:10110000843009F02FC111969C911197898198170D
:1011100009F428C1ADE7B0E025C1843009F421C14C
:101120008230A9F4923009F01DC19A01AD0188E026
:10113000EA010990AE01E90109929E018150C1F7CF
:10114000E201898111969C918923818308C19230A3
:1011500009F407C112962D903C901397EB018A81F8
:101160009B811496AD90BD90CD90DC901797EC804C
:10117000FD800E811F819101281B390BB90137FFBA
:1011800004C066277727621B730B603271050CF071
:1011900061C0121613066CF537014801062E04C013
:1011A00096948794779467940A94D2F721E030E07C
:1011B00040E050E004C0220F331F441F551F6A95C2
:1011C000D2F721503040404050402E213F21402353
:1011D0005123211531054105510521F021E030E071
:1011E00040E050E079018A01E628F728082919290A
:1011F0003CC0232BD1F1260E371E35014601062EA9
:1012000004C096948794779467940A94D2F721E067
:1012100030E040E050E004C0220F331F441F551F50
:101220006A95D2F721503040404050402A213B215E
:101230004C215D21211531054105510521F021E0A9
:1012400030E040E050E059016A01A628B728C828DC
:10125000D9280BC0821593052CF01C01AA24BB24AD
:10126000650103C0EE24FF24870111969C91D201F1
:1012700011968C91981709F445C0992339F0A8016B
:1012800097012A193B094C095D0906C0A601950181
:101290002E193F09400B510B57FD08C011823382B4
:1012A000228224833583468357831DC081E0818356
:1012B0003382228288279927DC01821B930BA40B9F
:1012C000B50B84839583A683B7830DC0220F331F8C
:1012D000441F551F2483358346835783828193811E
:1012E0000197938382832481358146815781DA0176
:1012F000C9010197A109B1098F5F9F4FAF4FBF434C
:1013000028F30BC0918333822282EA0CFB1C0C1D54
:101310001D1DE482F5820683178383E08083248188
:1013200035814681578157FF1AC0C901AA2797FD09
:10133000A095BA2F81709070A070B07056954795A7
:1013400037952795822B932BA42BB52B84839583DC
:10135000A683B78382819381019693838283DF0181
:1013600001C0D201CD01CDB7DEB7E2E10C94E80FA8
:10137000A0E2B0E0EEEBF9E00C94D80F69837A8339
:101380008B839C832D833E834F835887E9E0EE2E29
:10139000F12CEC0EFD1ECE010196B7010E94FB0E52
:1013A0008E010F5E1F4FCE010596B8010E94FB0E05
:1013B0008A8991E089278A8BC701B801AE01475E0F
:1013C0005F4F0E946C080E94260EA096E6E00C94E7
:1013D000F40FA0E2B0E0EFEEF9E00C94D80F6983CF
:1013E0007A838B839C832D833E834F835887F9E0D8
:1013F000EF2EF12CEC0EFD1ECE010196B7010E94DE
:10140000FB0E8E010F5E1F4FCE010596B8010E94A4
:10141000FB0EC701B801AE01475E5F4F0E946C082A
:101420000E94260EA096E6E00C94F40FA0E2B0E035
:10143000ECE1FAE00C94CC0F69837A838B839C8374
:101440002D833E834F835887CE010196BE01675F8F
:101450007F4F0E94FB0ECE010596BE016F5E7F4F4F
:101460000E94FB0E9985923088F089898230C8F0FD
:10147000943019F4823051F404C0843029F492304D
:1014800081F48DE790E0C6C0923049F420E09A855F
:101490008A89981321E02A87CE010996BBC0823041
:1014A00049F420E09A858A89981321E02A8BCE019D
:1014B0004196B0C02D843E844F8458886D887E88C4
:1014C0008F88988CEE24FF248701AA24BB24650111
:1014D00040E050E060E070E0E0E0F0E0C1018170E9
:1014E0009070892BE9F0E60CF71C081D191D9A0174
:1014F000AB012A0D3B1D4C1D5D1D80E090E0A0E07E
:10150000B0E0E614F7040805190520F481E090E046
:10151000A0E0B0E0BA01A901480F591F6A1F7B1F64
:10152000AA0CBB1CCC1CDD1C97FE08C081E090E01F
:10153000A0E0B0E0A82AB92ACA2ADB2A3196E03214
:10154000F10549F0660C771C881C991C5694479449
:1015500037942794C3CFFA85EA892B893C898B85F8
:101560009C85280F391F2E5F3F4F17C0CA0181701D
:101570009070892B61F016950795F794E79480E0B9
:1015800090E0A0E0B0E8E82AF92A0A2B1B2B769518
:101590006795579547952F5F3F4F77FDE7CF0CC075
:1015A000440F551F661F771F17FD4160EE0CFF1C8F
:1015B000001F111F21503040403090E0590790E04B
:1015C000690790E4790760F32B8F3C8FDB01CA0138
:1015D0008F779070A070B07080349105A105B1052F
:1015E00061F447FD0AC0E114F1040105110529F079
:1015F000405C5F4F6F4F7F4F40781A8EFE1711F09F
:1016000081E08A8F4D8F5E8F6F8F78A383E0898F03
:10161000CE0149960E94260EA096E2E10C94E80FB6
:10162000A8E1B0E0E6E1FBE00C94D40F69837A8393
:101630008B839C832D833E834F835887B9E0EB2EA9
:10164000F12CEC0EFD1ECE010196B7010E94FB0E9F
:101650008E010F5E1F4FCE010596B8010E94FB0E52
:101660002985223008F47EC03989323010F4B8015F
:101670007CC08A859A8989278A87243011F0223094
:1016800031F4231709F06EC06DE770E06EC034309E
:1016900039F41D861E861F86188A1C861B8604C088
:1016A000323021F484E08987B7015FC02B853C8507
:1016B0008B899C89281B390B3C872B87ED84FE8402
:1016C0000F851889AD88BE88CF88D88CEA14FB04B2
:1016D0000C051D0540F4EE0CFF1C001F111F2150CE
:1016E00030403C872B8720E030E040E050E080E055
:1016F00090E0A0E0B0E460E070E0EA14FB040C05C8
:101700001D0540F0282B392B4A2B5B2BEA18FB08D0
:101710000C091D09B695A79597958795EE0CFF1CAA
:10172000001F111F6F5F7F4F6F31710531F7DA01B5
:10173000C9018F779070A070B07080349105A105B9
:10174000B10561F427FD0AC0E114F104010511059A
:1017500029F0205C3F4F4F4F5F4F20782D873E8709
:101760004F87588BBE01675F7F4FCB010E94260ECB
:101770006896EAE00C94F00FA8E1B0E0E2ECFBE040
:101780000C94D80F69837A838B839C832D833E834B
:101790004F83588789E0E82EF12CEC0EFD1ECE0118
:1017A0000196B7010E94FB0E8E010F5E1F4FCE0106
:1017B0000596B8010E94FB0E8985823040F0898928
:1017C000823028F0C701B8010E94730F01C081E088
:1017D0006896E6E00C94F40FA8E1B0E0E2EFFBE0DD
:1017E0000C94D80F69837A838B839C832D833E83EB
:1017F0004F83588789E0E82EF12CEC0EFD1ECE01B8
:101800000196B7010E94FB0E8E010F5E1F4FCE01A5
:101810000596B8010E94FB0E8985823040F08989C7
:10182000823028F0C701B8010E94730F01C08FEF0A
:101830006896E6E00C94F40FA8E1B0E0E2E2FCE088
:101840000C94D80F69837A838B839C832D833E838A
:101850004F83588789E0E82EF12CEC0EFD1ECE0157
:101860000196B7010E94FB0E8E010F5E1F4FCE0145
:101870000596B8010E94FB0E8985823040F0898967
:10188000823028F0C701B8010E94730F01C08FEFAA
:101890006896E6E00C94F40FA8E1B0E0E2E5FCE025
:1018A0000C94D80F69837A838B839C832D833E832A
:1018B0004F83588789E0E82EF12CEC0EFD1ECE01F7
:1018C0000196B7010E94FB0E8E010F5E1F4FCE01E5
:1018D0000596B8010E94FB0E8985823040F0898907
:1018E000823028F0C701B8010E94730F01C081E067
:1018F0006896E6E00C94F40FA8E1B0E0E2E8FCE0C2
:101900000C94D80F69837A838B839C832D833E83C9
:101910004F83588789E0E82EF12CEC0EFD1ECE0196
:101920000196B7010E94FB0E8E010F5E1F4FCE0184
:101930000596B8010E94FB0E8985823040F08989A6
:10194000823028F0C701B8010E94730F01C081E006
:101950006896E6E00C94F40FA8E0B0E0E2EBFCE05F
:101960000C94D50F9B01AC0183E08983DA01C90196
:101970008827B7FD83959927AA27BB27B82E21155D
:1019800031054105510519F482E089833AC0882365
:10199000A9F0203080E0380780E0480780E8580749
:1019A00029F460E070E080E09FEC30C0EE24FF247A
:1019B0008701E21AF30A040B150B02C079018A01B0
:1019C0008EE1C82ED12CDC82CB82ED82FE820F8389
:1019D0001887C801B7010E94D70D0197181619067C
:1019E00084F4082E04C0EE0CFF1C001F111F0A9483
:1019F000D2F7ED82FE820F831887C81AD90ADC82DB
:101A0000CB82BA82CE0101960E94260E2896E9E08A
:101A10000C94F10FACE0B0E0E0E1FDE00C94DC0FE1
:101A200069837A838B839C83CE010196BE016B5FB1
:101A30007F4F0E94FB0E8D81823061F1823050F128
:101A4000843021F48E81882351F12EC02F81388576
:101A500037FD20C06E812F3131051CF06623F9F06F
:101A600023C08EE190E0821B930B29853A854B853C
:101A70005C8504C056954795379527958A95D2F78A
:101A80006623B1F050954095309521953F4F4F4FCB
:101A90005F4F0EC020E030E040E050E009C02FEF83
:101AA0003FEF4FEF5FE704C020E030E040E050E858
:101AB000B901CA012C96E2E00C94F80FA8E0B0E05E
:101AC000E4E6FDE00C94D40F7B018C0161157105F7
:101AD0008105910519F482E0898360C083E08983E0
:101AE0008EE1C82ED12CDC82CB82ED82FE820F8368
:101AF0001887C801B7010E94D70DFC013197F7FF85
:101B00003BC0222733272E1B3F0B57016801022EB3
:101B100004C0D694C794B794A7940A94D2F740E02F
:101B200050E060E070E081E090E0A0E0B0E004C050
:101B3000880F991FAA1FBB1F2A95D2F70197A109E9
:101B4000B1098E219F21A023B1230097A105B105E2
:101B500021F041E050E060E070E04A295B296C2907
:101B60007D294D835E836F8378878EE190E08E1BA5
:101B70009F0B9C838B8312C0309781F00E2E04C084
:101B8000EE0CFF1C001F111F0A94D2F7ED82FE829B
:101B90000F831887CE1ADF0ADC82CB821A82CE012D
:101BA00001960E94260E2896EAE00C94F00FEF9220
:101BB000FF920F931F937B018C0180E0E81680E079
:101BC000F80681E0080780E0180788F48FEFE81630
:101BD000F1040105110531F028F088E090E0A0E063
:101BE000B0E017C080E090E0A0E0B0E012C080E07C
:101BF000E81680E0F80680E0080781E0180728F082
:101C000088E190E0A0E0B0E004C080E190E0A0E0D6
:101C1000B0E020E230E040E050E0281B390B4A0BF6
:101C20005B0B04C016950795F794E7948A95D2F755
:101C3000F701EB57FF4F8081281B310941095109FA
:101C4000C9011F910F91FF90EF900895DF92EF92DD
:101C5000FF920F931F93FC01E480F58006811781AA
:101C6000D1808081823048F480E090E0A0E1B0E053
:101C7000E82AF92A0A2B1B2BA5C0843009F49FC03F
:101C8000823021F4EE24FF24870105C0E114F10421
:101C90000105110519F4E0E0F0E096C0628173815E
:101CA0009FEF623879070CF05BC022E83FEF261BFC
:101CB000370B2A3131052CF020E030E040E050E0D5
:101CC0002AC0B801A701022E04C0769567955795E2
:101CD00047950A94D2F781E090E0A0E0B0E004C01C
:101CE000880F991FAA1FBB1F2A95D2F70197A10938
:101CF000B1098E219F21A023B1230097A105B10531
:101D000021F081E090E0A0E0B0E09A01AB01282B47
:101D1000392B4A2B5B2BDA01C9018F779070A070A9
:101D2000B07080349105A105B10539F427FF09C0D1
:101D3000205C3F4F4F4F5F4F04C0215C3F4F4F4FE0
:101D40005F4FE0E0F0E02030A0E03A07A0E04A0773
:101D5000A0E45A0710F0E1E0F0E079018A0127C021
:101D60006038710564F5FB01E158FF4FD801C701E8
:101D70008F779070A070B07080349105A105B10587
:101D800039F4E7FE0DC080E490E0A0E0B0E004C0CC
:101D90008FE390E0A0E0B0E0E80EF91E0A1F1B1FE1
:101DA00017FF05C016950795F794E794319687E0DD
:101DB00016950795F794E7948A95D1F705C0EE2418
:101DC000FF248701EFEFF0E06E2F67956627679598
:101DD000902F9F77D794DD24D7948E2F8695492F07
:101DE000462B582F5D29B701CA011F910F91FF9013
:101DF000EF90DF900895FC01DB0140815181228149
:101E0000622F6F7770E0221F2227221F9381892F74
:101E1000880F822B282F30E0991F9927991F119640
:101E20009C93119721153105A9F5411551056105BF
:101E3000710511F482E037C082E89FEF13969C93FE
:101E40008E9312979A01AB0167E0220F331F441F54
:101E5000551F6A95D1F783E08C930DC0220F331F75
:101E6000441F551F12968D919C91139701971396BD
:101E70009C938E931297203080E0380780E04807CB
:101E800080E4580758F314962D933D934D935C933B
:101E9000179708952F3F310579F4411551056105D4
:101EA000710519F484E08C93089564FF03C081E008
:101EB0008C9312C01C9210C02F57304013963C9345
:101EC0002E93129783E08C9387E0440F551F661F73
:101ED000771F8A95D1F7706414964D935D936D9337
:101EE0007C93179708951F93DC01FB019C9192301E
:101EF00008F447C08081823008F443C0943051F424
:101F000011961C91843099F58181682F70E0611BD6
:101F100071093FC0843021F0923031F48230B9F140
:101F20008181882389F12DC011961C9111978230EF
:101F3000F1F081811817D9F412962D913C911397E5
:101F4000828193818217930794F028173907BCF098
:101F500014968D919D910D90BC91A02D2481358179
:101F600046815781281739074A075B0718F4112360
:101F700041F00AC082179307A407B50740F4112364
:101F800019F061E070E005C06FEF7FEF02C060E024
:101F900070E0CB011F9108952F923F924F925F9274
:101FA0006F927F928F929F92AF92BF92CF92DF9269
:101FB000EF92FF920F931F93CF93DF93CDB7DEB7CE
:101FC000CA1BDB0B0FB6F894DEBF0FBECDBF099462
:101FD0002A88398848885F846E847D848C849B84B9
:101FE000AA84B984C884DF80EE80FD800C811B81C7
:101FF000AA81B981CE0FD11D0FB6F894DEBF0FBEF6
:10200000CDBFED010895AEE0B0E0E9E0F0E10C9461
:10201000DA0F0D891E8986E08C831A8309838FEF7E
:102020009FE79E838D839E01275E3F4FCE010196E1
:102030006F89788DA9010E9427102F813885020FA2
:10204000131FF80110822E96E4E00C94F60FABE01B
:10205000B0E0EDE2F0E10C94CC0F3C012B015A0111
:10206000FC0117821682838181FD03C06FEF7FEF31
:10207000C6C19AE0892E1E010894211C311CF3016F
:102080002381F20123FD859123FF81912F01882374
:1020900009F4B2C1853239F423FD859123FF819182
:1020A0002F01853229F490E0B3010E941A12E7CF84
:1020B000982FFF24EE249924FFE1FF15D0F09B32E6
:1020C00069F09C3228F4903259F0933291F40EC0AA
:1020D0009D3249F0903369F441E024C052E0F52A82
:1020E00084E0F82A28C098E0F92A25C0E0E1FE2A19
:1020F00022C0F7FC29C0892F80538A3070F4F6FE85
:1021000005C0989C902C1124980E15C0E89CE02CDA
:102110001124E80EF0E2FF2A0EC09E3229F4F6FCEC
:102120006BC140E4F42A07C09C3619F450E8F52A44
:1021300002C0983649F4F20123FD959123FF919155
:102140002F01992309F0B8CF892F8554833018F0D7
:102150008052833038F444E050E0A40EB51E5FE3B3
:1021600059830FC0933631F0933779F0933509F0E6
:1021700056C020C0F5018081898342E050E0A40E62
:10218000B51E610101E010E012C0F501C080D180F0
:10219000F6FC03C06FEF7FEF02C0692D70E042E0F4
:1021A00050E0A40EB51EC6010E940F128C015FE71D
:1021B000F52214C0F501C080D180F6FC03C06FEF9A
:1021C0007FEF02C0692D70E042E050E0A40EB51E22
:1021D000C6010E9404128C0150E8F52AF3FE07C0E4
:1021E0001AC080E290E0B3010E941A12EA948E2D88
:1021F00090E008171907A8F30EC0F601F7FC8591C7
:10220000F7FE81916F0190E0B3010E941A12E11074
:10221000EA94015010400115110579F7EAC094368F
:1022200011F0993669F5F7FE08C0F501208131817A
:102230004281538184E090E00AC0F5018081918160
:102240009C01442737FD4095542F82E090E0A80E72
:10225000B91E9FE6F92257FF09C050954095309569
:1022600021953F4F4F4F5F4FE0E8FE2ACA01B90169
:10227000A1012AE030E00E944612D82ED21840C0B8
:10228000953729F41F2D1F7E2AE030E01DC01F2D39
:10229000197F9F3661F0903720F4983509F0ACC073
:1022A0000FC0903739F0983709F0A6C004C028E075
:1022B00030E00AC0106114FD146020E130E004C079
:1022C00014FD166020E132E017FF08C0F5016081BF
:1022D00071818281938144E050E008C0F5018081E2
:1022E0009181BC0180E090E042E050E0A40EB51E78
:1022F000A1010E944612D82ED2188FE7F82EF122A3
:10230000F6FE0BC05EEFF522D91438F4F4FE07C0D8
:10231000F2FC05C08FEEF82202C01D2D01C0192D60
:10232000F4FE0DC0FE01ED0DF11D8081803319F426
:1023300099EEF92208C01F5FF2FE05C003C08F2D81
:10234000867809F01F5F0F2DF3FC14C0F0FE0FC05C
:102350001E1510F09D2C0BC09D2C9E0C911A1E2D4D
:1023600006C080E290E0B3010E941A121F5F1E15A2
:10237000C0F304C01E1510F4E11A01C0EE2404FFDE
:102380000FC080E390E0B3010E941A1202FF1DC04B
:1023900001FD03C088E790E00EC088E590E00BC027
:1023A000802F867891F001FF02C08BE201C080E2AD
:1023B000F7FC8DE290E0B3010E941A1206C080E3A0
:1023C00090E0B3010E941A129A94D914C0F3DA94DF
:1023D000F101ED0DF11D808190E0B3010E941A1210
:1023E000DD20A9F706C080E290E0B3010E941A1236
:1023F000EA94EE20C1F743CEF30166817781CB01E9
:102400002B96E2E10C94E80FFC01059061507040BE
:102410000110D8F7809590958E0F9F1F0895FC01AD
:102420006150704001900110D8F7809590958E0F03
:102430009F1F08950F931F93CF93DF938C01EB01A0
:102440008B8181FF1BC082FF0DC02E813F818C815B
:102450009D812817390764F4E881F9810193F98394
:10246000E88306C0E885F985802F0995892B31F42A
:102470008E819F8101969F838E8302C00FEF1FEF95
:10248000C801DF91CF911F910F910895FA01AA27FA
:10249000283051F1203181F1E8946F936E7F6E5FA7
:1024A0007F4F8F4F9F4FAF4FB1E03ED0B4E03CD055
:1024B000670F781F891F9A1FA11D680F791F8A1F38
:1024C000911DA11D6A0F711D811D911DA11D20D09F
:1024D00009F468943F912AE0269F11243019305D59
:1024E0003193DEF6CF010895462F4770405D41934A
:1024F000B3E00FD0C9F7F6CF462F4F70405D4A3397
:1025000018F0495D31FD4052419302D0A9F7EACF5E
:10251000B4E0A6959795879577956795BA95C9F78D
:1025200000976105710508959B01AC010A2E069480
:102530005795479537952795BA95C9F7620F731F39
:0C254000841F951FA01D0895F894FFCF84
:10254C002564000106000600050005000000803F20
:10255C000000803F0000803F0000803F140000001E
:10256C000000000000000102020303030304040442
:10257C000404040404050505050505050505050504
:10258C0005050505050606060606060606060606E4
:10259C0006060606060606060606060606060606CF
:1025AC0006060606060707070707070707070707B4
:1025BC00070707070707070707070707070707079F
:1025CC00070707070707070707070707070707078F
:1025DC00070707070707070707070707070707077F
:1025EC000707070707080808080808080808080864
:1025FC00080808080808080808080808080808084F
:10260C00080808080808080808080808080808083E
:10261C00080808080808080808080808080808082E
:10262C00080808080808080808080808080808081E
:10263C00080808080808080808080808080808080E
:10264C0008080808080808080808080808080808FE
:10265C0008080808080808080808080808080808EE
:06266C0008080808080040
:00000001FF
