:100000000C942A000C9447000C9447000C94470071
:100010000C9447000C9447000C9447000C94470044
:100020000C9447000C94F3030C9447000C94470085
:100030000C9447000C9410070C946E070C94470026
:100040000C9453000C9447000C9447000C94470008
:100050000C94470011241FBECFE5D8E0DEBFCDBF12
:1000600011E0A0E6B0E0E2E7FEE102C005900D92EB
:10007000A238B107D9F711E0A2E8B1E001C01D92A2
:10008000AE3EB107E1F70E9401060C94370F0C94C5
:10009000000017B88FEA86B910BE369A81E087B99A
:1000A00080E18ABB08951F920F920FB60F92112420
:1000B0002F933F938F939F9324B135B187B18823BA
:1000C000F9F08130C9F5CA9B0BC08091A8019091CD
:1000D000A901821B930B9093A9018093A8010AC0E8
:1000E0008091A8019091A901280F391F3093A9018F
:1000F0002093A8018091AC018F5F8093AC011CC05C
:10010000CB9B0BC08091AA019091AB01821B930BFA
:100110009093AB018093AA010AC08091AA019091AB
:10012000AB01280F391F3093AB012093AA018091B6
:10013000AD018F5F8093AD0187B191E0892787B9C9
:100140009F918F913F912F910F900FBE0F901F9015
:1001500018952F923F924F925F926F927F928F925B
:100160009F92AF92BF92CF92DF92EF92FF920F9346
:100170001F93CF93DF93EC01F8946090A8017090E7
:10018000A9016091AA017091AB012090AC01E090AF
:10019000AD011092AC011092A9011092A801109229
:1001A000AD011092AB011092AA017894882777FDD7
:1001B0008095982F0E94E00B5B016C01FF2400E00A
:1001C00010E0C801B7010E94920C9B01AC01C6016E
:1001D000B5010E94740A6C837D838E839F8388247B
:1001E00077FC8094982CC401B3010E94E00B7B0142
:1001F0008C01332444245524C201B1010E94920C85
:100200009B01AC01C801B7010E94740A688379831D
:100210008A839B83DF91CF911F910F91FF90EF9085
:10022000DF90CF90BF90AF909F908F907F906F9016
:100230005F904F903F902F9008952F923F924F9252
:100240005F926F927F928F929F92AF92BF92CF9266
:10025000DF92EF92FF920F931F93DF93CF93CDB76F
:10026000DEB760970FB6F894DEBF0FBECDBF6F83C9
:10027000788789879A872B873C874D875E872701F8
:100280003801988A8F86C801B70120E030E040E845
:100290005FE30E94200B18165CF40F2EF0E04F2E47
:1002A000F0E05F2EF0E86F2EFFE37F2EF02D14C0FC
:1002B000C801B70120E030E040E85FEB0E94800B0E
:1002C000882354F40F2EF0E04F2EF0E05F2EF0E87C
:1002D0006F2EFFEB7F2EF02DC601B50120E030E040
:1002E00040E85FE30E94200B18165CF40F2EF0E04C
:1002F000AF2EF0E0BF2EF0E8CF2EFFE3DF2EF02D83
:1003000014C0C601B50120E030E040E85FEB0E9478
:10031000800B882354F40F2EF0E0AF2EF0E0BF2EB8
:10032000F0E8CF2EFFEBDF2EF02DE0909601F0905D
:1003300097010091980110919901E0929201F09239
:1003400093010093940110939501C601B501A30197
:1003500092010E941C092AE132E646E850E40E941C
:100360007A096B837C838D839E836093960170935F
:1003700097018093980190939901C601B501A3015B
:1003800092010E944D0920E030E040E05FE30E94CE
:100390007A093B014C0160938E0170938F01809329
:1003A0009001909391016B817C818D819E81A80148
:1003B00097010E944D092AE037ED43E25BE30E947A
:1003C0007A0920919E0130919F014091A0015091A6
:1003D000A1010E944D097B018C012BED3FE049EC0E
:1003E00050E40E94200B18164CF4C801B7012BED05
:1003F0003FE049EC50E40E941C0912C0C801B7015B
:1004000020E030E040E050E00E94800B882354F46C
:10041000C801B7012BED3FE049EC50E40E944D09C3
:100420007B018C01E0929E01F0929F010093A0015C
:100430001093A101C801B7012BED3FE049E450E45E
:100440000E944D099B01AC016B857C858D859E8545
:100450000E94500B88235CF06B857C858D859E8582
:100460002BED3FE049EC50E40E941C091CC0C80180
:10047000B7012BED3FE049E450E40E941C099B01C9
:10048000AC016B857C858D859E850E94B00B18160E
:1004900074F06B857C858D859E852BED3FE049EC66
:1004A00050E40E944D096B877C878D879E876B8502
:1004B0007C858D859E85A80197010E941C095B01A2
:1004C0006C0160939A0170939B0180939C019093BF
:1004D0009D01C401B30128EE31EB49E750EC0E94C5
:1004E0007A097B018C016F81788589859A8524EF53
:1004F00038ED4CE950E40E947A099B01AC01C80137
:10050000B7010E944D093B014C01C601B50121E232
:1005100037EA44E95FE30E947A097B018C016B8131
:100520007C818D819E8128E137EA44E15FEB0E9466
:100530007A099B01AC01C801B7010E944D095B011A
:100540006C0120E030E040E050E00E94500B87FF5B
:1005500003C00FEF1FEF02C001E010E01093850110
:1005600000938401C401B30120E030E040E050E09A
:100570000E94500B87FF05C02FEF3FEF3A8329837E
:1005800004C081E090E09A838983A981BA81B09305
:100590008301A0938201B801882777FD8095982F69
:1005A0000E94E00B1B012C01A60195010E947A0913
:1005B0007B018C0120E030E040E85FE30E94200BEB
:1005C00018161CF46201510114C0C801B7012DECCA
:1005D0003CEC4CE45DE30E94B00B181654F00F2E77
:1005E000F0E0AF2EF0E0BF2EF0E0CF2EF0E0DF2EF7
:1005F000F02DA0928601B0928701C0928801D0921E
:100600008901E981FA81BF01882777FD8095982FBC
:100610000E94E00B7B018C01A40193010E947A09E6
:1006200020E030E040E85FE30E94200B181614F44D
:1006300037014801C201B101A60195010E947A0962
:100640009B01AC0160E070E080E89FE30E941C0920
:100650001B012C01C801B701A40193010E947A0972
:10066000A20191010E94200B181644F4C801B701A1
:10067000A20191010E947A093B014C0160928A011A
:1006800070928B0180928C0190928D01C401B30114
:10069000A60195010E944D09ADA1BEA16D937D9368
:1006A0008D939C931397C401B301A60195010E94F9
:1006B0001C09EF85F8896083718382839383ADA1E0
:1006C000BEA1ED90FD900D911C91C801B70124EAE7
:1006D00030E74DE75FE30E94200B18165CF40F2E05
:1006E000F4EAEF2EF0E7FF2EFDE70F2FFFE31F2FB9
:1006F000F02D14C0C801B70124EA30E74DE75FEBE5
:100700000E94800B882354F40F2EF4EAEF2EF0E7BA
:10071000FF2EFDE70F2FFFEB1F2FF02DEDA1FEA108
:10072000E082F18202831383AF85B889ED90FD905A
:100730000D911C91C801B70124EA30E74DE75FE352
:100740000E94200B18165CF40F2EF4EAEF2EF0E74F
:10075000FF2EFDE70F2FFFE31F2FF02D14C0C80160
:10076000B70124EA30E74DE75FEB0E94800B882356
:1007700054F40F2EF4EAEF2EF0E7FF2EFDE70F2FD3
:10078000FFEB1F2FF02DEF85F889E082F1820283C5
:10079000138360960FB6F894DEBF0FBECDBFCF9126
:1007A000DF911F910F91FF90EF90DF90CF90BF905E
:1007B000AF909F908F907F906F905F904F903F9001
:1007C0002F9008958CEF81BB82EA8FBD8AE18EBDA8
:1007D0001BBC1ABC19BC18BC8FE097E297BD86BD44
:1007E00084E089BF08951F920F920FB60F921124D3
:1007F0002F933F938F939F9381E08093A701209144
:10080000A5012130C1F48091A2019091A30101962C
:100810009093A3018093A2018091A2019091A301E2
:10082000845F914040F01092A5011092A3011092B4
:10083000A2012093A4019F918F913F912F910F903E
:100840000FBE0F901F901895AF92BF92CF92DF927C
:10085000EF92FF920F931F937B018C0159016A0164
:100860002AE037ED43E25CE30E94200B18168CF47B
:1008700066B577B580E090E00E94920CA8019701E0
:100880000E947A090E94A40779BD68BD929A939844
:100890001EC0C801B7012AE037ED43E25CE30E94C5
:1008A000800B882394F466B577B580E090E00E94D1
:1008B000920CA801970150580E947A090E94A4073F
:1008C00079BD68BD939A929802C082B382BBC6017B
:1008D000B5012AE037ED43E25CE30E94200B1816D5
:1008E0008CF466B577B580E090E00E94920CA6018A
:1008F00095010E947A090E94A4077BBD6ABD969A61
:1009000097981EC0C601B5012AE037ED43E25CE3CB
:100910000E94800B882394F466B577B580E090E060
:100920000E94920CA601950150580E947A090E94DB
:10093000A4077BBD6ABD979A969802C082B382BB1A
:100940001F910F91FF90EF90DF90CF90BF90AF90ED
:1009500008951BBC1ABC19BC18BC82B3846482BB4A
:10096000DC9A1092A3011092A20181E08093A5016C
:100970001092A4018091A4018130E1F788BB10920C
:10098000A4011092AC011092AD011092A901109235
:10099000A8011092AB011092AA018091AC0189319B
:1009A00020F48091AD018931C0F386EC91E00E9482
:1009B000A90082B3846482BB82B382BBDC9881E0ED
:1009C0008093A5011092A4018091A4018130E1F7E8
:1009D0001092AC011092AD011092A9011092A801E1
:1009E0001092AB011092AA011092A4018091AC0167
:1009F000893120F48091AD018931C0F381E690E026
:100A00000E94A90088B392E0892788BB82B38868D6
:100A100082BB82B382BBDC9A81E08093A5011092F5
:100A2000A4018091A4018130E1F71092AC011092F1
:100A3000AD011092A9011092A8011092AB01109281
:100A4000AA011092A4018091AC01893120F4809117
:100A5000AD018931C0F38AEC91E00E94A90088B30E
:100A600094E0892788BB82B3886882BB82B382BB4B
:100A7000DC9881E08093A5011092A4018091A401EB
:100A80008130E1F71092AC011092AD011092A901F2
:100A90001092A8011092AB011092AA011092A40129
:100AA0008091AC01893120F48091AD018931C0F38E
:100AB00085E690E00E94A90088B398E0892788BB6A
:100AC0006091C6017091C7018091C8019091C901E0
:100AD0002091610030916200409163005091640068
:100AE0000E941C099B01AC0160E070EC8FE794E46C
:100AF0000E94740A20E030E040E85AE30E947A093C
:100B00006093690070936A0080936B0090936C000F
:100B10006091CA017091CB018091CC019091CD017F
:100B20002091650030916600409167005091680007
:100B30000E941C099B01AC0160E070EC8FE794E41B
:100B40000E94740A20E030E040E85AE30E947A09EB
:100B500060936D0070936E0080936F0090937000AF
:100B60006091CA017091CB018091CC019091CD012F
:100B700020916500309166004091670050916800B7
:100B80000E941C099B01AC0160E070EC8FE794E4CB
:100B90000E94740A20E030E040E85AE30E947A099B
:100BA000609371007093720080937300909374004F
:100BB0006091CE017091CF018091D0019091D101CF
:100BC0002091690030916A0040916B0050916C0057
:100BD0000E941C099B01AC0160E070EC8FE794E47B
:100BE0000E94740A20E030E040E85AE30E947A094B
:100BF00060937500709376008093770090937800EF
:100C000008957F928F929F92AF92BF92CF92DF9280
:100C1000EF92FF920F931F93CF93DF9378948FEF10
:100C200087BB18BA0E9406070E9449000E94E2038F
:100C30000E94A9041092A70184E682BB77247394D2
:100C4000C2ECD1E0809160008823A1F57092600031
:100C50006091CE017091CF018091D0019091D1012E
:100C600020E030E048EC52E40E941C092AE037ED15
:100C700043E25CE30E947A096093CE017093CF0156
:100C80008093D0019093D1016091D2017091D301F2
:100C90008091D4019091D50125E33AEF4EE05DE3D8
:100CA0000E947A096093D2017093D3018093D4019A
:100CB0009093D5018091A701882321F21092A7017A
:100CC00086EB91E00E94A900E090BA01F090BB0190
:100CD0000091BC011091BD01C801B70120E030E0D6
:100CE00040E050E00E94200B18165CF4C801B701E8
:100CF00020916D0030916E0040916F005091700016
:100D00000AC0C801B701209175003091760040916A
:100D10007700509178000E947A096093B201709335
:100D2000B3018093B4019093B501E090B601F090C7
:100D3000B7010091B8011091B901C801B70120E0D5
:100D400030E040E050E00E94200B18165CF4C8012F
:100D5000B7012091690030916A0040916B00509179
:100D60006C000AC0C801B701209171003091720077
:100D700040917300509174000E947A096093AE0113
:100D80007093AF018093B0019093B1016091CE0157
:100D90007091CF018091D0019091D1012091D20129
:100DA0003091D3014091D4015091D50100D0E09011
:100DB000AE01F090AF010091B0011091B101A0908F
:100DC000B201B090B301C090B401D090B501EDB7BD
:100DD000FEB7D283C183EEEB8E2EE1E09E2E0E9401
:100DE0001D010F900F906091BE017091BF01809125
:100DF000C0019091C1012091C2013091C301409185
:100E0000C4015091C5010E9424041CCF10BC87E688
:100E100089B980E28BB988E98AB986E880BD0895EE
:100E20001F920F920FB60F9211242F933F934F935F
:100E30005F936F937F938F939F93AF93BF93EF9342
:100E4000FF938CB18093ED018091A601882319F462
:100E50008091ED018CB980916000823051F0833037
:100E6000D9F0813051F58091ED01813F11F482E09C
:100E700010C06091ED0170E080E090E00E94920C63
:100E80006093CE017093CF018093D0019093D101F4
:100E900083E08093600011C06091ED0170E080E01C
:100EA00090E00E94920C6093D2017093D3018093E2
:100EB000D4019093D50110926000FF91EF91BF9102
:100EC000AF919F918F917F916F915F914F913F91E2
:100ED0002F910F900FBE0F901F9018951F920F9299
:100EE0000FB60F9211248F93EF93FF9380917900A7
:100EF000843129F48EEF8CB9109279001DC0E091F5
:100F00007900F0E0E952FE4F8081882369F0E0919A
:100F10007900F0E0E952FE4F80818CB98091790030
:100F20008F5F8093790008C08FEF8CB9559884E16A
:100F3000809379001092A601FF91EF918F910F900D
:100F40000FBE0F901F901895EF92FF920F931F9373
:100F50007B018C0120E030E040E05FE40E94500B18
:100F600088238CF0C801B70120E030E040E05FE466
:100F70000E941C090E943E0C9B01AC012050304095
:100F80004040504806C0C801B7010E943E0C9B017A
:100F9000AC01B901CA011F910F91FF90EF90089524
:100FA000A0E0B0E0E6EDF7E00C94000FDC012B01CF
:100FB000FA019C91923008F439C1EB0188818230AA
:100FC00008F433C1943069F4843009F02FC11196CC
:100FD0009C9111978981981709F428C1AAE7B0E07C
:100FE00025C1843009F421C18230A9F4923009F07E
:100FF0001DC19A01AD0188E0EA010990AE01E90145
:1010000009929E018150C1F7E201898111969C915C
:101010008923818308C1923009F407C112962D906B
:101020003C901397EB018A819B811496AD90BD9003
:10103000CD90DC901797EC80FD800E811F8191018F
:10104000281B390BB90137FF04C066277727621BBD
:10105000730B603271050CF061C0121613066CF54B
:1010600037014801062E04C09694879477946794BC
:101070000A94D2F721E030E040E050E004C0220FB3
:10108000331F441F551F6A95D2F72150304040400E
:1010900050402E213F214023512321153105410588
:1010A000510521F021E030E040E050E079018A0173
:1010B000E628F728082919293CC0232BD1F1260E50
:1010C000371E35014601062E04C096948794779406
:1010D00067940A94D2F721E030E040E050E004C089
:1010E000220F331F441F551F6A95D2F721503040FD
:1010F000404050402A213B214C215D2121153105E2
:101100004105510521F021E030E040E050E0590177
:101110006A01A628B728C828D9280BC082159305CC
:101120002CF01C01AA24BB24650103C0EE24FF247B
:10113000870111969C91D20111968C91981709F410
:1011400045C0992339F0A80197012A193B094C0998
:101150005D0906C0A60195012E193F09400B510BF0
:1011600057FD08C01182338222822483358346834F
:1011700057831DC081E0818333822282882799278B
:10118000DC01821B930BA40BB50B84839583A68390
:10119000B7830DC0220F331F441F551F248335838F
:1011A000468357838281938101979383828324812D
:1011B000358146815781DA01C9010197A109B10939
:1011C0008F5F9F4FAF4FBF4328F30BC09183338294
:1011D0002282EA0CFB1C0C1D1D1DE482F582068395
:1011E000178383E08083248135814681578157FFAF
:1011F0001AC0C901AA2797FDA095BA2F81709070D7
:10120000A070B0705695479537952795822B932BF4
:10121000A42BB52B84839583A683B7838281938186
:10122000019693838283DF0101C0D201CD01CDB746
:10123000DEB7E2E10C941C0FA0E2B0E0E2E2F9E0DC
:101240000C940C0F69837A838B839C832D833E835C
:101250004F835887E9E0EE2EF12CEC0EFD1ECE01F7
:101260000196B7010E942F0E8E010F5E1F4FCE0117
:101270000596B8010E942F0E8A8991E089278A8BF2
:10128000C701B801AE01475E5F4F0E94D0070E94C0
:101290005A0DA096E6E00C94280FA0E2B0E0E3E53A
:1012A000F9E00C940C0F69837A838B839C832D83E4
:1012B0003E834F835887F9E0EF2EF12CEC0EFD1E94
:1012C000CE010196B7010E942F0E8E010F5E1F4FB7
:1012D000CE010596B8010E942F0EC701B801AE01DC
:1012E000475E5F4F0E94D0070E945A0DA096E6E02D
:1012F0000C94280FA0E2B0E0E0E8F9E00C94000FB5
:1013000069837A838B839C832D833E834F835887A5
:10131000CE010196BE01675F7F4F0E942F0ECE0166
:101320000596BE016F5E7F4F0E942F0E9985923009
:1013300088F089898230C8F0943019F4823051F4F1
:1013400004C0843029F4923081F48AE790E0C6C06A
:10135000923049F420E09A858A89981321E02A87FF
:10136000CE010996BBC0823049F420E09A858A8973
:10137000981321E02A8BCE014196B0C02D843E8483
:101380004F8458886D887E888F88988CEE24FF243F
:101390008701AA24BB24650140E050E060E070E0D2
:1013A000E0E0F0E0C10181709070892BE9F0E60C7B
:1013B000F71C081D191D9A01AB012A0D3B1D4C1D80
:1013C0005D1D80E090E0A0E0B0E0E614F7040805C1
:1013D000190520F481E090E0A0E0B0E0BA01A90195
:1013E000480F591F6A1F7B1FAA0CBB1CCC1CDD1C9D
:1013F00097FE08C081E090E0A0E0B0E0A82AB92AFA
:10140000CA2ADB2A3196E032F10549F0660C771CD6
:10141000881C991C5694479437942794C3CFFA8517
:10142000EA892B893C898B859C85280F391F2E5F83
:101430003F4F17C0CA0181709070892B61F01695DB
:101440000795F794E79480E090E0A0E0B0E8E82A00
:10145000F92A0A2B1B2B76956795579547952F5F91
:101460003F4F77FDE7CF0CC0440F551F661F771F16
:1014700017FD4160EE0CFF1C001F111F2150304072
:10148000403090E0590790E0690790E4790760F3F5
:101490002B8F3C8FDB01CA018F779070A070B070EA
:1014A00080349105A105B10561F447FD0AC0E1143E
:1014B000F1040105110529F0405C5F4F6F4F7F4F2C
:1014C00040781A8EFE1711F081E08A8F4D8F5E8F63
:1014D0006F8F78A383E0898FCE0149960E945A0DC1
:1014E000A096E2E10C941C0FA8E1B0E0EAE7FAE074
:1014F0000C94080F69837A838B839C832D833E83AE
:101500004F835887B9E0EB2EF12CEC0EFD1ECE0177
:101510000196B7010E942F0E8E010F5E1F4FCE0164
:101520000596B8010E942F0E2985223008F47EC04E
:101530003989323010F4B8017CC08A859A898927AC
:101540008A87243011F0223031F4231709F06EC05D
:101550006AE770E06EC0343039F41D861E861F863F
:10156000188A1C861B8604C0323021F484E08987E7
:10157000B7015FC02B853C858B899C89281B390B63
:101580003C872B87ED84FE840F851889AD88BE8843
:10159000CF88D88CEA14FB040C051D0540F4EE0C32
:1015A000FF1C001F111F215030403C872B8720E07B
:1015B00030E040E050E080E090E0A0E0B0E460E0A7
:1015C00070E0EA14FB040C051D0540F0282B392BB4
:1015D0004A2B5B2BEA18FB080C091D09B695A79549
:1015E00097958795EE0CFF1C001F111F6F5F7F4FB3
:1015F0006F31710531F7DA01C9018F779070A070F2
:10160000B07080349105A105B10561F427FD0AC0D1
:10161000E114F1040105110529F0205C3F4F4F4F03
:101620005F4F20782D873E874F87588BBE01675FBD
:101630007F4FCB010E945A0D6896EAE00C94240F6C
:10164000A8E1B0E0E6E2FBE00C940C0F69837A833A
:101650008B839C832D833E834F83588789E0E82EBC
:10166000F12CEC0EFD1ECE010196B7010E942F0E4B
:101670008E010F5E1F4FCE010596B8010E942F0EFE
:101680008985823040F08989823028F0C701B8010D
:101690000E94A70E01C08FEF6896E6E00C94280F19
:1016A000A8E1B0E0E6E5FBE00C940C0F69837A83D7
:1016B0008B839C832D833E834F83588789E0E82E5C
:1016C000F12CEC0EFD1ECE010196B7010E942F0EEB
:1016D0008E010F5E1F4FCE010596B8010E942F0E9E
:1016E0008985823040F08989823028F0C701B801AD
:1016F0000E94A70E01C08FEF6896E6E00C94280FB9
:10170000A8E1B0E0E6E8FBE00C940C0F69837A8373
:101710008B839C832D833E834F83588789E0E82EFB
:10172000F12CEC0EFD1ECE010196B7010E942F0E8A
:101730008E010F5E1F4FCE010596B8010E942F0E3D
:101740008985823040F08989823028F0C701B8014C
:101750000E94A70E01C081E06896E6E00C94280F75
:10176000A8E1B0E0E6EBFBE00C940C0F69837A8310
:101770008B839C832D833E834F83588789E0E82E9B
:10178000F12CEC0EFD1ECE010196B7010E942F0E2A
:101790008E010F5E1F4FCE010596B8010E942F0EDD
:1017A0008985823040F08989823028F0C701B801EC
:1017B0000E94A70E01C081E06896E6E00C94280F15
:1017C000A8E0B0E0E6EEFBE00C94090F9B01AC0151
:1017D00083E08983DA01C9018827B7FD83959927BA
:1017E000AA27BB27B82E211531054105510519F44B
:1017F00082E089833AC08823A9F0203080E038074E
:1018000080E0480780E8580729F460E070E080E055
:101810009FEC30C0EE24FF248701E21AF30A040B88
:10182000150B02C079018A018EE1C82ED12CDC8211
:10183000CB82ED82FE820F831887C801B7010E9418
:101840000B0D01971816190684F4082E04C0EE0C2F
:10185000FF1C001F111F0A94D2F7ED82FE820F8336
:101860001887C81AD90ADC82CB82BA82CE010196C7
:101870000E945A0D2896E9E00C94250FACE0B0E0E8
:10188000E4E4FCE00C94100F69837A838B839C83DF
:10189000CE010196BE016B5F7F4F0E942F0E8D819E
:1018A000823061F1823050F1843021F48E818823BE
:1018B00051F12EC02F81388537FD20C06E812F3128
:1018C00031051CF06623F9F023C08EE190E0821B05
:1018D000930B29853A854B855C8504C056954795C1
:1018E000379527958A95D2F76623B1F050954095A4
:1018F000309521953F4F4F4F5F4F0EC020E030E0B5
:1019000040E050E009C02FEF3FEF4FEF5FE704C02A
:1019100020E030E040E050E8B901CA012C96E2E056
:101920000C942C0FA8E0B0E0E8E9FCE00C94080F60
:101930007B018C01611571058105910519F482E027
:10194000898360C083E089838EE1C82ED12CDC823C
:10195000CB82ED82FE820F831887C801B7010E94F7
:101960000B0DFC013197F7FF3BC0222733272E1BBD
:101970003F0B57016801022E04C0D694C794B79458
:10198000A7940A94D2F740E050E060E070E081E074
:1019900090E0A0E0B0E004C0880F991FAA1FBB1F11
:1019A0002A95D2F70197A109B1098E219F21A02381
:1019B000B1230097A105B10521F041E050E060E0BE
:1019C00070E04A295B296C297D294D835E836F83F2
:1019D00078878EE190E08E1B9F0B9C838B8312C0D7
:1019E000309781F00E2E04C0EE0CFF1C001F111F5B
:1019F0000A94D2F7ED82FE820F831887CE1ADF0A8F
:101A0000DC82CB821A82CE0101960E945A0D289662
:101A1000EAE00C94240FEF92FF920F931F937B0147
:101A20008C0180E0E81680E0F80681E0080780E09D
:101A3000180788F48FEFE816F1040105110531F05D
:101A400028F088E090E0A0E0B0E017C080E090E0EF
:101A5000A0E0B0E012C080E0E81680E0F80680E088
:101A6000080781E0180728F088E190E0A0E0B0E0E6
:101A700004C080E190E0A0E0B0E020E230E040E08F
:101A800050E0281B390B4A0B5B0B04C016950795D9
:101A9000F794E7948A95D2F7F701EE57FF4F8081CC
:101AA000281B310941095109C9011F910F91FF906C
:101AB000EF900895DF92EF92FF920F931F93FC0136
:101AC000E480F58006811781D1808081823048F4DE
:101AD00080E090E0A0E1B0E0E82AF92A0A2B1B2B75
:101AE000A5C0843009F49FC0823021F4EE24FF2485
:101AF000870105C0E114F1040105110519F4E0E0C6
:101B0000F0E096C0628173819FEF623879070CF034
:101B10005BC022E83FEF261B370B2A3131052CF042
:101B200020E030E040E050E02AC0B801A701022EDA
:101B300004C076956795579547950A94D2F781E04A
:101B400090E0A0E0B0E004C0880F991FAA1FBB1F5F
:101B50002A95D2F70197A109B1098E219F21A023CF
:101B6000B1230097A105B10521F081E090E0A0E04C
:101B7000B0E09A01AB01282B392B4A2B5B2BDA0101
:101B8000C9018F779070A070B07080349105A10565
:101B9000B10539F427FF09C0205C3F4F4F4F5F4F1D
:101BA00004C0215C3F4F4F4F5F4FE0E0F0E020303A
:101BB000A0E03A07A0E04A07A0E45A0710F0E1E0ED
:101BC000F0E079018A0127C06038710564F5FB01F6
:101BD000E158FF4FD801C7018F779070A070B070A7
:101BE00080349105A105B10539F4E7FE0DC080E40C
:101BF00090E0A0E0B0E004C08FE390E0A0E0B0E0AF
:101C0000E80EF91E0A1F1B1F17FF05C01695079542
:101C1000F794E794319687E016950795F794E79443
:101C20008A95D1F705C0EE24FF248701EFEFF0E09D
:101C30006E2F679566276795902F9F77D794DD2441
:101C4000D7948E2F8695492F462B582F5D29B701A3
:101C5000CA011F910F91FF90EF90DF900895FC0152
:101C6000DB01408151812281622F6F7770E0221F5A
:101C70002227221F9381892F880F822B282F30E063
:101C8000991F9927991F11969C931197211531053A
:101C9000A9F5411551056105710511F482E037C0C0
:101CA00082E89FEF13969C938E9312979A01AB0153
:101CB00067E0220F331F441F551F6A95D1F783E059
:101CC0008C930DC0220F331F441F551F12968D9108
:101CD0009C911397019713969C938E9312972030A3
:101CE00080E0380780E0480780E4580758F31496EE
:101CF0002D933D934D935C93179708952F3F310596
:101D000079F4411551056105710519F484E08C934E
:101D1000089564FF03C081E08C9312C01C9210C030
:101D20002F57304013963C932E93129783E08C9359
:101D300087E0440F551F661F771F8A95D1F770649F
:101D400014964D935D936D937C93179708951F930D
:101D5000DC01FB019C91923008F447C08081823005
:101D600008F443C0943051F411961C91843099F5D5
:101D70008181682F70E0611B71093FC0843021F0C0
:101D8000923031F48230B9F18181882389F12DC0FC
:101D900011961C9111978230F1F081811817D9F4B6
:101DA00012962D913C91139782819381821793070C
:101DB00094F028173907BCF014968D919D910D90E1
:101DC000BC91A02D24813581468157812817390780
:101DD0004A075B0718F4112341F00AC082179307E2
:101DE000A407B50740F4112319F061E070E005C0C5
:101DF0006FEF7FEF02C060E070E0CB011F910895AC
:101E00002F923F924F925F926F927F928F929F920A
:101E1000AF92BF92CF92DF92EF92FF920F931F93F8
:101E2000CF93DF93CDB7DEB7CA1BDB0B0FB6F894A9
:101E3000DEBF0FBECDBF09942A88398848885F84E9
:101E40006E847D848C849B84AA84B984C884DF805A
:101E5000EE80FD800C811B81AA81B981CE0FD11D3E
:101E60000FB6F894DEBF0FBECDBFED010895F89414
:021E7000FFCFA2
:101E72000106000600050005000000803F0000800A
:101E82003F0000803F0000803F140000000000007F
:101E92000000000102020303030304040404040417
:101EA20004040505050505050505050505050505E2
:101EB20005050606060606060606060606060606C2
:101EC20006060606060606060606060606060606B0
:101ED2000606070707070707070707070707070792
:101EE2000707070707070707070707070707070780
:101EF2000707070707070707070707070707070770
:101F0200070707070707070707070707070707075F
:101F12000707080808080808080808080808080841
:101F2200080808080808080808080808080808082F
:101F3200080808080808080808080808080808081F
:101F4200080808080808080808080808080808080F
:101F520008080808080808080808080808080808FF
:101F620008080808080808080808080808080808EF
:101F720008080808080808080808080808080808DF
:101F820008080808080808080808080808080808CF
:021F920008083D
:00000001FF
